:020000040000FA
:10000000000200106901000071010000730100008E
:100010007501000077010000790100000000000078
:100020000000000000000000000000007B01000054
:100030007D010000000000007F0100008101000040
:1000400083010000830100008301000083010000A0
:100050008301000039050000ED0500008301000068
:100060008301000083010000830100008301000080
:100070008301000083010000830100008301000070
:100080008301000083010000830100008301000060
:100090008301000083010000830100008301000050
:1000A0008301000083010000830100008301000040
:1000B0008301000083010000830100008301000030
:1000C00083010000830100008301000000F002F8BA
:1000D00000F03AF80AA090E8000C82448344AAF1A8
:1000E0000107DA4501D100F02FF8AFF2090EBAE8A6
:1000F0000F0013F0010F18BFFB1A43F0010318475C
:100100005C0100007C010000103A24BF78C878C16F
:10011000FAD8520724BF30C830C144BF04680C600D
:10012000704700000023002400250026103A28BF55
:1001300078C1FBD8520728BF30C148BF0B60704759
:100140001FB51FBD10B510BD00F051F81146FFF7E7
:10015000F7FF00F027F800F06FF803B4FFF7F2FFA5
:1001600003BC00F073F800000948804709480047C5
:10017000FEE7FEE7FEE7FEE7FEE7FEE7FEE7FEE757
:10018000FEE7FEE704480549034A054B70470000B7
:1001900001030000CD000000F8C00720000200109D
:1001A0000000001000F022F94FF46141002000F03F
:1001B00077FA11E00948006870B1062008494860E4
:1001C000064802680749002000F0EFFA00200349C2
:1001D0000860072002494860ECE7000010C00720D3
:1001E00000C0004018C00720704770477047754630
:1001F00000F028F8AE4605006946534620F0070097
:10020000854618B020B5FFF7BDFFBDE820404FF090
:1002100000064FF000074FF000084FF0000B21F0F0
:100220000701AC46ACE8C009ACE8C009ACE8C009BD
:10023000ACE8C0098D4670470446AFF30080204605
:10024000FFF78BFF0048704798C00720014918202E
:10025000ABBEFEE726000200704700004408000025
:1002600000C0072018000000080100005C08000022
:1002700018C00720E000000024010000000000007A
:10028000000000000000000000000000000000006E
:10029000000000000000000000000000000000005E
:1002A000000000000000000000000000000000004E
:1002B000000000000000000000000000000000003E
:1002C000000000000000000000000000000000002E
:1002D000000000000000000000000000000000001E
:1002E000000000000000000000000000000000000E
:1002F000000000000000000000000000FFFFFFFF02
:1003000000202021864A116000BF8549096801F05C
:1003100040010029F9D00321814A9C3A1160002153
:10032000804AC2F8A8117E4A0C32116001217C4A31
:10033000943A11600B217B4A843211600121121F13
:100340001160AA21774A8C3211605521754AC2F892
:100350008C10734994390968022908D000BF71498B
:100360008831096801F080610029F8D004E000209C
:1003700000E0401C6428FCD903216A4A80321160E5
:10038000AA21684AC2F88C105521664A8C32116045
:100390002321644AA43211600121121F1160AA2195
:1003A000604AAC3211605521116000BF5D49A8312F
:1003B000096801F480610029F8D00321594AA0326C
:1003C0001160AA21574AC2F8AC105521554AAC32E7
:1003D00011605549534AC43211600021504A2832F5
:1003E000116043F23A014F4A116070474D4888301E
:1003F0000068C0F30160032860D149489438006860
:1004000000F0030030B1012820D0022839D00328A1
:1004100053D100E000BF434888300068C0F30E00AD
:10042000401C41003F48D0F88800C0F30740401C02
:10043000B1FBF0F03D49484339499C390968C9B2DC
:10044000491CB0FBF1F03A49086036E03548883085
:100450000068C0F30E00401C41003248D0F888000C
:10046000C0F30740401CB1FBF0F0324948432C492F
:100470009C390968C9B2491CB0FBF1F02C490860ED
:100480001BE0284888300068C0F30E00401C410083
:100490002448D0F88800C0F30740401CB1FBF0F0BE
:1004A0004FF4FA4148431E499C390968C9B2491CB6
:1004B000B0FBF1F01E49086000BF30E018489438E6
:1004C000006800F0030030B1012810D0022819D0D4
:1004D000032823D100E000BF11489C380068C0B257
:1004E000401C1249B1FBF0F01149086016E00C48BD
:1004F0009C380068C0B2401C0E49B1FBF0F00C49BA
:1005000008600BE006489C380068C0B2401C4FF4FD
:10051000FA41B1FBF0F00649086000BF00BF704728
:10052000A0C10F4000C00F40DE87280400093D0035
:1005300000C00720001BB70030B500BFB44B9B685C
:10054000D8B2401000F00700032821D1B04B5B69FE
:10055000D9B201F09E032BB1AE4B1960AC4B1B68B6
:10056000DAB230BD01F00103002B3DD0A84B1B686F
:10057000A94CAA4D2D686355A84B1B685B1CA74C62
:10058000236023461B68402B2ED1002323602BE0E1
:10059000022811D19E4B1B689F4CA04D2D686355BE
:1005A0009E4B1B685B1C9D4C236023461B68402BA5
:1005B0001AD10023236017E0062806D1954B1B684B
:1005C00043F48073934C23600EE001280CD1904BD0
:1005D0005B69D9B201F020031BB10123904C237059
:1005E00002E000238E4C237000BFBAE730B500BF95
:1005F0008C4B9B68D8B2401000F00700032821D133
:10060000884B5B69D9B201F09E032BB1864B196010
:10061000844B1B68DAB230BD01F00103002B3DD0E2
:10062000804B1B68814C824D2D686355804B1B6845
:100630005B1C7F4C236023461B68402B2ED100237C
:1006400023602BE0022811D1764B1B68774C784D44
:100650002D686355764B1B685B1C754C23602346E5
:100660001B68402B1AD10023236017E0062806D10F
:100670006D4B1B6843F480736B4C23600EE00128C4
:100680000CD1684B5B69D9B201F020031BB1012387
:10069000684C237002E00023664C237000BFBAE769
:1006A0002DE9F04107468846002F3DD16248006899
:1006B00020F0F000604908600846006840F05000F3
:1006C00008605E480068C0F3811636B1012E08D07C
:1006D000022E09D0032E0BD000BF594800688408B1
:1006E0000AE05748046807E055480068440803E0FA
:1006F00053480068C40800BF00BF83204449C86055
:100700002009B0FBF8F5280A4860E8B20860032029
:10071000C86007208860052000F06FF807203C497A
:1007200048600120BDE8F081012F3CD142480069BA
:1007300020F00F00404908610846006940F00A00B7
:1007400008613E480068C0F3012636B1012E08D08A
:10075000022E09D0032E0BD000BF39480068840850
:100760000AE03748046807E035480068440803E0B9
:1007700033480068C40800BF00BF83202949C8600F
:100780002009B0FBF8F5280A4860E8B208600320A9
:10079000C86007208860062000F02FF80720214954
:1007A00048600120BEE70020BCE710B590B90EE01C
:1007B00000BF1B4B1B7803F00103002BF9D00B7813
:1007C000134C23600023164C2370491C521E002A30
:1007D000EED111E00EE000BF164B1B7803F00103D1
:1007E000002BF9D00B780F4C23600023114C2370A1
:1007F000491C521E002AEED110BD00F01F0201213B
:1008000091404209920002F1E022C2F800117047C3
:1008100000C0004004C0072018C0072010C00720F7
:100820000CC007200000014008C0072058C0072066
:1008300014C007200DC0072000C00240A8C10F400F
:1008400000C0072000093D0000000000000000007B
:0C0850000101000000000000000000009A
:04000005000000CD2A
:00000001FF
